{
  "_format": "hh-sol-artifact-1",
  "contractName": "ERC721Datastore",
  "sourceName": "contracts/registry/ERC721Datastore.sol",
  "abi": [
    {
      "anonymous": false,
      "inputs": [
        {
          "indexed": true,
          "internalType": "address",
          "name": "controller",
          "type": "address"
        },
        {
          "indexed": false,
          "internalType": "bool",
          "name": "enabled",
          "type": "bool"
        }
      ],
      "name": "ControllerChanged",
      "type": "event"
    },
    {
      "anonymous": false,
      "inputs": [
        {
          "indexed": true,
          "internalType": "address",
          "name": "addr",
          "type": "address"
        },
        {
          "indexed": true,
          "internalType": "uint256",
          "name": "tokenId",
          "type": "uint256"
        },
        {
          "indexed": false,
          "internalType": "bytes32",
          "name": "labelhash",
          "type": "bytes32"
        }
      ],
      "name": "NewLabelHash",
      "type": "event"
    },
    {
      "anonymous": false,
      "inputs": [
        {
          "indexed": true,
          "internalType": "address",
          "name": "addr",
          "type": "address"
        },
        {
          "indexed": true,
          "internalType": "uint256",
          "name": "tokenId",
          "type": "uint256"
        },
        {
          "indexed": false,
          "internalType": "string",
          "name": "name",
          "type": "string"
        }
      ],
      "name": "NewName",
      "type": "event"
    },
    {
      "anonymous": false,
      "inputs": [
        {
          "indexed": true,
          "internalType": "address",
          "name": "addr",
          "type": "address"
        },
        {
          "indexed": true,
          "internalType": "uint256",
          "name": "tokenId",
          "type": "uint256"
        },
        {
          "indexed": false,
          "internalType": "bytes32",
          "name": "nodehash",
          "type": "bytes32"
        }
      ],
      "name": "NewNodeHash",
      "type": "event"
    },
    {
      "anonymous": false,
      "inputs": [
        {
          "indexed": true,
          "internalType": "address",
          "name": "previousOwner",
          "type": "address"
        },
        {
          "indexed": true,
          "internalType": "address",
          "name": "newOwner",
          "type": "address"
        }
      ],
      "name": "OwnershipTransferred",
      "type": "event"
    },
    {
      "inputs": [
        {
          "internalType": "address",
          "name": "",
          "type": "address"
        }
      ],
      "name": "controllers",
      "outputs": [
        {
          "internalType": "bool",
          "name": "",
          "type": "bool"
        }
      ],
      "stateMutability": "view",
      "type": "function"
    },
    {
      "inputs": [
        {
          "internalType": "address",
          "name": "addr",
          "type": "address"
        },
        {
          "internalType": "uint256",
          "name": "tokenId",
          "type": "uint256"
        }
      ],
      "name": "labelhash",
      "outputs": [
        {
          "internalType": "bytes32",
          "name": "",
          "type": "bytes32"
        }
      ],
      "stateMutability": "view",
      "type": "function"
    },
    {
      "inputs": [
        {
          "internalType": "address",
          "name": "addr",
          "type": "address"
        },
        {
          "internalType": "uint256",
          "name": "tokenId",
          "type": "uint256"
        }
      ],
      "name": "name",
      "outputs": [
        {
          "internalType": "string",
          "name": "",
          "type": "string"
        }
      ],
      "stateMutability": "view",
      "type": "function"
    },
    {
      "inputs": [
        {
          "internalType": "address",
          "name": "addr",
          "type": "address"
        },
        {
          "internalType": "uint256",
          "name": "tokenId",
          "type": "uint256"
        }
      ],
      "name": "nodehash",
      "outputs": [
        {
          "internalType": "bytes32",
          "name": "",
          "type": "bytes32"
        }
      ],
      "stateMutability": "view",
      "type": "function"
    },
    {
      "inputs": [],
      "name": "owner",
      "outputs": [
        {
          "internalType": "address",
          "name": "",
          "type": "address"
        }
      ],
      "stateMutability": "view",
      "type": "function"
    },
    {
      "inputs": [],
      "name": "renounceOwnership",
      "outputs": [],
      "stateMutability": "nonpayable",
      "type": "function"
    },
    {
      "inputs": [
        {
          "internalType": "address",
          "name": "controller",
          "type": "address"
        },
        {
          "internalType": "bool",
          "name": "enabled",
          "type": "bool"
        }
      ],
      "name": "setController",
      "outputs": [],
      "stateMutability": "nonpayable",
      "type": "function"
    },
    {
      "inputs": [
        {
          "internalType": "address",
          "name": "_addr",
          "type": "address"
        },
        {
          "internalType": "uint256",
          "name": "_tokenId",
          "type": "uint256"
        },
        {
          "internalType": "string",
          "name": "_name",
          "type": "string"
        },
        {
          "internalType": "bytes32",
          "name": "_labelhash",
          "type": "bytes32"
        },
        {
          "internalType": "bytes32",
          "name": "_nodehash",
          "type": "bytes32"
        }
      ],
      "name": "setRecord",
      "outputs": [],
      "stateMutability": "nonpayable",
      "type": "function"
    },
    {
      "inputs": [
        {
          "internalType": "address",
          "name": "newOwner",
          "type": "address"
        }
      ],
      "name": "transferOwnership",
      "outputs": [],
      "stateMutability": "nonpayable",
      "type": "function"
    }
  ],
  "bytecode": "0x608060405234801561001057600080fd5b5061002d61002261003260201b60201c565b61003a60201b60201c565b6100fe565b600033905090565b60008060009054906101000a900473ffffffffffffffffffffffffffffffffffffffff169050816000806101000a81548173ffffffffffffffffffffffffffffffffffffffff021916908373ffffffffffffffffffffffffffffffffffffffff1602179055508173ffffffffffffffffffffffffffffffffffffffff168173ffffffffffffffffffffffffffffffffffffffff167f8be0079c531659141344cd1fd0a4f28419497f9722a3daafe3b4186f6b6457e060405160405180910390a35050565b6114198061010d6000396000f3fe608060405234801561001057600080fd5b50600436106100935760003560e01c80638da5cb5b116100665780638da5cb5b1461011e578063cd4668a01461013c578063da8c229e1461016c578063e0dba60f1461019c578063f2fde38b146101b857610093565b806349dd0e8314610098578063715018a6146100b457806383bac8da146100be578063861eec0e146100ee575b600080fd5b6100b260048036038101906100ad9190610cda565b6101d4565b005b6100bc610288565b005b6100d860048036038101906100d39190610d71565b61029c565b6040516100e59190610dc0565b60405180910390f35b61010860048036038101906101039190610d71565b6102fa565b6040516101159190610e5a565b60405180910390f35b6101266103e0565b6040516101339190610e8b565b60405180910390f35b61015660048036038101906101519190610d71565b610409565b6040516101639190610dc0565b60405180910390f35b61018660048036038101906101819190610ea6565b610467565b6040516101939190610eee565b60405180910390f35b6101b660048036038101906101b19190610f35565b610487565b005b6101d260048036038101906101cd9190610ea6565b610538565b005b600160003373ffffffffffffffffffffffffffffffffffffffff1673ffffffffffffffffffffffffffffffffffffffff16815260200190815260200160002060009054906101000a900460ff16610260576040517f08c379a000000000000000000000000000000000000000000000000000000000815260040161025790610fe7565b60405180910390fd5b61026b8585856105bb565b6102768585846106fc565b610281858583610834565b5050505050565b61029061096c565b61029a60006109ea565b565b6000600260008473ffffffffffffffffffffffffffffffffffffffff1673ffffffffffffffffffffffffffffffffffffffff168152602001908152602001600020600083815260200190815260200160002060020154905092915050565b6060600260008473ffffffffffffffffffffffffffffffffffffffff1673ffffffffffffffffffffffffffffffffffffffff1681526020019081526020016000206000838152602001908152602001600020600001805461035a90611036565b80601f016020809104026020016040519081016040528092919081815260200182805461038690611036565b80156103d35780601f106103a8576101008083540402835291602001916103d3565b820191906000526020600020905b8154815290600101906020018083116103b657829003601f168201915b5050505050905092915050565b60008060009054906101000a900473ffffffffffffffffffffffffffffffffffffffff16905090565b6000600260008473ffffffffffffffffffffffffffffffffffffffff1673ffffffffffffffffffffffffffffffffffffffff168152602001908152602001600020600083815260200190815260200160002060010154905092915050565b60016020528060005260406000206000915054906101000a900460ff1681565b61048f61096c565b80600160008473ffffffffffffffffffffffffffffffffffffffff1673ffffffffffffffffffffffffffffffffffffffff16815260200190815260200160002060006101000a81548160ff0219169083151502179055508173ffffffffffffffffffffffffffffffffffffffff167f4c97694570a07277810af7e5669ffd5f6a2d6b74b6e9a274b8b870fd5114cf878260405161052c9190610eee565b60405180910390a25050565b61054061096c565b600073ffffffffffffffffffffffffffffffffffffffff168173ffffffffffffffffffffffffffffffffffffffff16036105af576040517f08c379a00000000000000000000000000000000000000000000000000000000081526004016105a6906110d9565b60405180910390fd5b6105b8816109ea565b50565b600160003373ffffffffffffffffffffffffffffffffffffffff1673ffffffffffffffffffffffffffffffffffffffff16815260200190815260200160002060009054906101000a900460ff16610647576040517f08c379a000000000000000000000000000000000000000000000000000000000815260040161063e90610fe7565b60405180910390fd5b80600260008573ffffffffffffffffffffffffffffffffffffffff1673ffffffffffffffffffffffffffffffffffffffff168152602001908152602001600020600084815260200190815260200160002060000190816106a791906112a5565b50818373ffffffffffffffffffffffffffffffffffffffff167f59166c882576720437534813a337292ea5f105b41805a8edfb48173534add83e836040516106ef9190610e5a565b60405180910390a3505050565b600160003373ffffffffffffffffffffffffffffffffffffffff1673ffffffffffffffffffffffffffffffffffffffff16815260200190815260200160002060009054906101000a900460ff16610788576040517f08c379a000000000000000000000000000000000000000000000000000000000815260040161077f90610fe7565b60405180910390fd5b80600260008573ffffffffffffffffffffffffffffffffffffffff1673ffffffffffffffffffffffffffffffffffffffff168152602001908152602001600020600084815260200190815260200160002060010181905550818373ffffffffffffffffffffffffffffffffffffffff167f2fc58388b069c5f32e6899ca9be1dfbea4e00ad39e93abce24dccac9fd008582836040516108279190610dc0565b60405180910390a3505050565b600160003373ffffffffffffffffffffffffffffffffffffffff1673ffffffffffffffffffffffffffffffffffffffff16815260200190815260200160002060009054906101000a900460ff166108c0576040517f08c379a00000000000000000000000000000000000000000000000000000000081526004016108b790610fe7565b60405180910390fd5b80600260008573ffffffffffffffffffffffffffffffffffffffff1673ffffffffffffffffffffffffffffffffffffffff168152602001908152602001600020600084815260200190815260200160002060020181905550818373ffffffffffffffffffffffffffffffffffffffff167f8b71db19d22ec32a78a552a50114ea69dae3c54881ce1452341776618c6207168360405161095f9190610dc0565b60405180910390a3505050565b610974610aae565b73ffffffffffffffffffffffffffffffffffffffff166109926103e0565b73ffffffffffffffffffffffffffffffffffffffff16146109e8576040517f08c379a00000000000000000000000000000000000000000000000000000000081526004016109df906113c3565b60405180910390fd5b565b60008060009054906101000a900473ffffffffffffffffffffffffffffffffffffffff169050816000806101000a81548173ffffffffffffffffffffffffffffffffffffffff021916908373ffffffffffffffffffffffffffffffffffffffff1602179055508173ffffffffffffffffffffffffffffffffffffffff168173ffffffffffffffffffffffffffffffffffffffff167f8be0079c531659141344cd1fd0a4f28419497f9722a3daafe3b4186f6b6457e060405160405180910390a35050565b600033905090565b6000604051905090565b600080fd5b600080fd5b600073ffffffffffffffffffffffffffffffffffffffff82169050919050565b6000610af582610aca565b9050919050565b610b0581610aea565b8114610b1057600080fd5b50565b600081359050610b2281610afc565b92915050565b6000819050919050565b610b3b81610b28565b8114610b4657600080fd5b50565b600081359050610b5881610b32565b92915050565b600080fd5b600080fd5b6000601f19601f8301169050919050565b7f4e487b7100000000000000000000000000000000000000000000000000000000600052604160045260246000fd5b610bb182610b68565b810181811067ffffffffffffffff82111715610bd057610bcf610b79565b5b80604052505050565b6000610be3610ab6565b9050610bef8282610ba8565b919050565b600067ffffffffffffffff821115610c0f57610c0e610b79565b5b610c1882610b68565b9050602081019050919050565b82818337600083830152505050565b6000610c47610c4284610bf4565b610bd9565b905082815260208101848484011115610c6357610c62610b63565b5b610c6e848285610c25565b509392505050565b600082601f830112610c8b57610c8a610b5e565b5b8135610c9b848260208601610c34565b91505092915050565b6000819050919050565b610cb781610ca4565b8114610cc257600080fd5b50565b600081359050610cd481610cae565b92915050565b600080600080600060a08688031215610cf657610cf5610ac0565b5b6000610d0488828901610b13565b9550506020610d1588828901610b49565b945050604086013567ffffffffffffffff811115610d3657610d35610ac5565b5b610d4288828901610c76565b9350506060610d5388828901610cc5565b9250506080610d6488828901610cc5565b9150509295509295909350565b60008060408385031215610d8857610d87610ac0565b5b6000610d9685828601610b13565b9250506020610da785828601610b49565b9150509250929050565b610dba81610ca4565b82525050565b6000602082019050610dd56000830184610db1565b92915050565b600081519050919050565b600082825260208201905092915050565b60005b83811015610e15578082015181840152602081019050610dfa565b60008484015250505050565b6000610e2c82610ddb565b610e368185610de6565b9350610e46818560208601610df7565b610e4f81610b68565b840191505092915050565b60006020820190508181036000830152610e748184610e21565b905092915050565b610e8581610aea565b82525050565b6000602082019050610ea06000830184610e7c565b92915050565b600060208284031215610ebc57610ebb610ac0565b5b6000610eca84828501610b13565b91505092915050565b60008115159050919050565b610ee881610ed3565b82525050565b6000602082019050610f036000830184610edf565b92915050565b610f1281610ed3565b8114610f1d57600080fd5b50565b600081359050610f2f81610f09565b92915050565b60008060408385031215610f4c57610f4b610ac0565b5b6000610f5a85828601610b13565b9250506020610f6b85828601610f20565b9150509250929050565b7f436f6e74726f6c6c657261626c653a2043616c6c6572206973206e6f7420612060008201527f636f6e74726f6c6c657200000000000000000000000000000000000000000000602082015250565b6000610fd1602a83610de6565b9150610fdc82610f75565b604082019050919050565b6000602082019050818103600083015261100081610fc4565b9050919050565b7f4e487b7100000000000000000000000000000000000000000000000000000000600052602260045260246000fd5b6000600282049050600182168061104e57607f821691505b60208210810361106157611060611007565b5b50919050565b7f4f776e61626c653a206e6577206f776e657220697320746865207a65726f206160008201527f6464726573730000000000000000000000000000000000000000000000000000602082015250565b60006110c3602683610de6565b91506110ce82611067565b604082019050919050565b600060208201905081810360008301526110f2816110b6565b9050919050565b60008190508160005260206000209050919050565b60006020601f8301049050919050565b600082821b905092915050565b60006008830261115b7fffffffffffffffffffffffffffffffffffffffffffffffffffffffffffffffff8261111e565b611165868361111e565b95508019841693508086168417925050509392505050565b6000819050919050565b60006111a261119d61119884610b28565b61117d565b610b28565b9050919050565b6000819050919050565b6111bc83611187565b6111d06111c8826111a9565b84845461112b565b825550505050565b600090565b6111e56111d8565b6111f08184846111b3565b505050565b5b81811015611214576112096000826111dd565b6001810190506111f6565b5050565b601f8211156112595761122a816110f9565b6112338461110e565b81016020851015611242578190505b61125661124e8561110e565b8301826111f5565b50505b505050565b600082821c905092915050565b600061127c6000198460080261125e565b1980831691505092915050565b6000611295838361126b565b9150826002028217905092915050565b6112ae82610ddb565b67ffffffffffffffff8111156112c7576112c6610b79565b5b6112d18254611036565b6112dc828285611218565b600060209050601f83116001811461130f57600084156112fd578287015190505b6113078582611289565b86555061136f565b601f19841661131d866110f9565b60005b8281101561134557848901518255600182019150602085019450602081019050611320565b86831015611362578489015161135e601f89168261126b565b8355505b6001600288020188555050505b505050505050565b7f4f776e61626c653a2063616c6c6572206973206e6f7420746865206f776e6572600082015250565b60006113ad602083610de6565b91506113b882611377565b602082019050919050565b600060208201905081810360008301526113dc816113a0565b905091905056fea2646970667358221220de129c324796fb06c53c3129d5291b8f1a208a3a5cd5372efb1c89fe09719ae564736f6c63430008110033",
  "linkReferences": {},
  "deployedLinkReferences": {}
}