{
  "_format": "hh-sol-artifact-1",
  "contractName": "NamedRegistrar",
  "sourceName": "contracts/registrar/NamedRegistrar.sol",
  "abi": [
    {
      "inputs": [
        {
          "internalType": "contract Registry",
          "name": "_registry",
          "type": "address"
        },
        {
          "internalType": "bytes32",
          "name": "_baseNode",
          "type": "bytes32"
        },
        {
          "internalType": "string",
          "name": "_baseNodeName",
          "type": "string"
        }
      ],
      "stateMutability": "nonpayable",
      "type": "constructor"
    },
    {
      "anonymous": false,
      "inputs": [
        {
          "indexed": true,
          "internalType": "address",
          "name": "owner",
          "type": "address"
        },
        {
          "indexed": true,
          "internalType": "address",
          "name": "approved",
          "type": "address"
        },
        {
          "indexed": true,
          "internalType": "uint256",
          "name": "tokenId",
          "type": "uint256"
        }
      ],
      "name": "Approval",
      "type": "event"
    },
    {
      "anonymous": false,
      "inputs": [
        {
          "indexed": true,
          "internalType": "address",
          "name": "owner",
          "type": "address"
        },
        {
          "indexed": true,
          "internalType": "address",
          "name": "operator",
          "type": "address"
        },
        {
          "indexed": false,
          "internalType": "bool",
          "name": "approved",
          "type": "bool"
        }
      ],
      "name": "ApprovalForAll",
      "type": "event"
    },
    {
      "anonymous": false,
      "inputs": [
        {
          "indexed": true,
          "internalType": "address",
          "name": "controller",
          "type": "address"
        }
      ],
      "name": "ControllerAdded",
      "type": "event"
    },
    {
      "anonymous": false,
      "inputs": [
        {
          "indexed": true,
          "internalType": "address",
          "name": "controller",
          "type": "address"
        }
      ],
      "name": "ControllerRemoved",
      "type": "event"
    },
    {
      "anonymous": false,
      "inputs": [
        {
          "indexed": true,
          "internalType": "uint256",
          "name": "id",
          "type": "uint256"
        },
        {
          "indexed": true,
          "internalType": "address",
          "name": "owner",
          "type": "address"
        },
        {
          "indexed": false,
          "internalType": "uint256",
          "name": "expires",
          "type": "uint256"
        }
      ],
      "name": "NameMigrated",
      "type": "event"
    },
    {
      "anonymous": false,
      "inputs": [
        {
          "indexed": true,
          "internalType": "uint256",
          "name": "id",
          "type": "uint256"
        },
        {
          "indexed": true,
          "internalType": "address",
          "name": "owner",
          "type": "address"
        },
        {
          "indexed": false,
          "internalType": "uint256",
          "name": "expires",
          "type": "uint256"
        }
      ],
      "name": "NameRegistered",
      "type": "event"
    },
    {
      "anonymous": false,
      "inputs": [
        {
          "indexed": true,
          "internalType": "uint256",
          "name": "id",
          "type": "uint256"
        },
        {
          "indexed": false,
          "internalType": "uint256",
          "name": "expires",
          "type": "uint256"
        }
      ],
      "name": "NameRenewed",
      "type": "event"
    },
    {
      "anonymous": false,
      "inputs": [
        {
          "indexed": true,
          "internalType": "address",
          "name": "previousOwner",
          "type": "address"
        },
        {
          "indexed": true,
          "internalType": "address",
          "name": "newOwner",
          "type": "address"
        }
      ],
      "name": "OwnershipTransferred",
      "type": "event"
    },
    {
      "anonymous": false,
      "inputs": [
        {
          "indexed": true,
          "internalType": "address",
          "name": "from",
          "type": "address"
        },
        {
          "indexed": true,
          "internalType": "address",
          "name": "to",
          "type": "address"
        },
        {
          "indexed": true,
          "internalType": "uint256",
          "name": "tokenId",
          "type": "uint256"
        }
      ],
      "name": "Transfer",
      "type": "event"
    },
    {
      "inputs": [],
      "name": "GRACE_PERIOD",
      "outputs": [
        {
          "internalType": "uint256",
          "name": "",
          "type": "uint256"
        }
      ],
      "stateMutability": "view",
      "type": "function"
    },
    {
      "inputs": [
        {
          "internalType": "address",
          "name": "controller",
          "type": "address"
        }
      ],
      "name": "addController",
      "outputs": [],
      "stateMutability": "nonpayable",
      "type": "function"
    },
    {
      "inputs": [
        {
          "internalType": "address",
          "name": "to",
          "type": "address"
        },
        {
          "internalType": "uint256",
          "name": "tokenId",
          "type": "uint256"
        }
      ],
      "name": "approve",
      "outputs": [],
      "stateMutability": "nonpayable",
      "type": "function"
    },
    {
      "inputs": [
        {
          "internalType": "uint256",
          "name": "id",
          "type": "uint256"
        }
      ],
      "name": "available",
      "outputs": [
        {
          "internalType": "bool",
          "name": "",
          "type": "bool"
        }
      ],
      "stateMutability": "view",
      "type": "function"
    },
    {
      "inputs": [
        {
          "internalType": "address",
          "name": "owner",
          "type": "address"
        }
      ],
      "name": "balanceOf",
      "outputs": [
        {
          "internalType": "uint256",
          "name": "",
          "type": "uint256"
        }
      ],
      "stateMutability": "view",
      "type": "function"
    },
    {
      "inputs": [],
      "name": "baseNode",
      "outputs": [
        {
          "internalType": "bytes32",
          "name": "",
          "type": "bytes32"
        }
      ],
      "stateMutability": "view",
      "type": "function"
    },
    {
      "inputs": [],
      "name": "baseNodeName",
      "outputs": [
        {
          "internalType": "string",
          "name": "",
          "type": "string"
        }
      ],
      "stateMutability": "view",
      "type": "function"
    },
    {
      "inputs": [],
      "name": "baseURI",
      "outputs": [
        {
          "internalType": "string",
          "name": "",
          "type": "string"
        }
      ],
      "stateMutability": "view",
      "type": "function"
    },
    {
      "inputs": [
        {
          "internalType": "address",
          "name": "",
          "type": "address"
        }
      ],
      "name": "controllers",
      "outputs": [
        {
          "internalType": "bool",
          "name": "",
          "type": "bool"
        }
      ],
      "stateMutability": "view",
      "type": "function"
    },
    {
      "inputs": [
        {
          "internalType": "uint256",
          "name": "tokenId",
          "type": "uint256"
        }
      ],
      "name": "getApproved",
      "outputs": [
        {
          "internalType": "address",
          "name": "",
          "type": "address"
        }
      ],
      "stateMutability": "view",
      "type": "function"
    },
    {
      "inputs": [
        {
          "internalType": "address",
          "name": "owner",
          "type": "address"
        },
        {
          "internalType": "address",
          "name": "operator",
          "type": "address"
        }
      ],
      "name": "isApprovedForAll",
      "outputs": [
        {
          "internalType": "bool",
          "name": "",
          "type": "bool"
        }
      ],
      "stateMutability": "view",
      "type": "function"
    },
    {
      "inputs": [],
      "name": "name",
      "outputs": [
        {
          "internalType": "string",
          "name": "",
          "type": "string"
        }
      ],
      "stateMutability": "view",
      "type": "function"
    },
    {
      "inputs": [
        {
          "internalType": "uint256",
          "name": "id",
          "type": "uint256"
        }
      ],
      "name": "nameExpires",
      "outputs": [
        {
          "internalType": "uint256",
          "name": "",
          "type": "uint256"
        }
      ],
      "stateMutability": "view",
      "type": "function"
    },
    {
      "inputs": [],
      "name": "owner",
      "outputs": [
        {
          "internalType": "address",
          "name": "",
          "type": "address"
        }
      ],
      "stateMutability": "view",
      "type": "function"
    },
    {
      "inputs": [
        {
          "internalType": "uint256",
          "name": "tokenId",
          "type": "uint256"
        }
      ],
      "name": "ownerOf",
      "outputs": [
        {
          "internalType": "address",
          "name": "",
          "type": "address"
        }
      ],
      "stateMutability": "view",
      "type": "function"
    },
    {
      "inputs": [
        {
          "internalType": "uint256",
          "name": "id",
          "type": "uint256"
        },
        {
          "internalType": "address",
          "name": "owner",
          "type": "address"
        }
      ],
      "name": "reclaim",
      "outputs": [],
      "stateMutability": "nonpayable",
      "type": "function"
    },
    {
      "inputs": [
        {
          "internalType": "uint256",
          "name": "id",
          "type": "uint256"
        },
        {
          "internalType": "address",
          "name": "owner",
          "type": "address"
        },
        {
          "internalType": "uint256",
          "name": "duration",
          "type": "uint256"
        }
      ],
      "name": "register",
      "outputs": [
        {
          "internalType": "uint256",
          "name": "",
          "type": "uint256"
        }
      ],
      "stateMutability": "nonpayable",
      "type": "function"
    },
    {
      "inputs": [
        {
          "internalType": "uint256",
          "name": "id",
          "type": "uint256"
        },
        {
          "internalType": "address",
          "name": "owner",
          "type": "address"
        },
        {
          "internalType": "uint256",
          "name": "duration",
          "type": "uint256"
        }
      ],
      "name": "registerOnly",
      "outputs": [
        {
          "internalType": "uint256",
          "name": "",
          "type": "uint256"
        }
      ],
      "stateMutability": "nonpayable",
      "type": "function"
    },
    {
      "inputs": [],
      "name": "registry",
      "outputs": [
        {
          "internalType": "contract Registry",
          "name": "",
          "type": "address"
        }
      ],
      "stateMutability": "view",
      "type": "function"
    },
    {
      "inputs": [
        {
          "internalType": "address",
          "name": "controller",
          "type": "address"
        }
      ],
      "name": "removeController",
      "outputs": [],
      "stateMutability": "nonpayable",
      "type": "function"
    },
    {
      "inputs": [
        {
          "internalType": "uint256",
          "name": "id",
          "type": "uint256"
        },
        {
          "internalType": "uint256",
          "name": "duration",
          "type": "uint256"
        }
      ],
      "name": "renew",
      "outputs": [
        {
          "internalType": "uint256",
          "name": "",
          "type": "uint256"
        }
      ],
      "stateMutability": "nonpayable",
      "type": "function"
    },
    {
      "inputs": [],
      "name": "renounceOwnership",
      "outputs": [],
      "stateMutability": "nonpayable",
      "type": "function"
    },
    {
      "inputs": [
        {
          "internalType": "address",
          "name": "from",
          "type": "address"
        },
        {
          "internalType": "address",
          "name": "to",
          "type": "address"
        },
        {
          "internalType": "uint256",
          "name": "tokenId",
          "type": "uint256"
        }
      ],
      "name": "safeTransferFrom",
      "outputs": [],
      "stateMutability": "nonpayable",
      "type": "function"
    },
    {
      "inputs": [
        {
          "internalType": "address",
          "name": "from",
          "type": "address"
        },
        {
          "internalType": "address",
          "name": "to",
          "type": "address"
        },
        {
          "internalType": "uint256",
          "name": "tokenId",
          "type": "uint256"
        },
        {
          "internalType": "bytes",
          "name": "data",
          "type": "bytes"
        }
      ],
      "name": "safeTransferFrom",
      "outputs": [],
      "stateMutability": "nonpayable",
      "type": "function"
    },
    {
      "inputs": [
        {
          "internalType": "address",
          "name": "operator",
          "type": "address"
        },
        {
          "internalType": "bool",
          "name": "approved",
          "type": "bool"
        }
      ],
      "name": "setApprovalForAll",
      "outputs": [],
      "stateMutability": "nonpayable",
      "type": "function"
    },
    {
      "inputs": [
        {
          "internalType": "string",
          "name": "uri",
          "type": "string"
        }
      ],
      "name": "setBaseURI",
      "outputs": [],
      "stateMutability": "nonpayable",
      "type": "function"
    },
    {
      "inputs": [
        {
          "internalType": "address",
          "name": "resolver",
          "type": "address"
        }
      ],
      "name": "setResolver",
      "outputs": [],
      "stateMutability": "nonpayable",
      "type": "function"
    },
    {
      "inputs": [
        {
          "internalType": "bytes4",
          "name": "interfaceId",
          "type": "bytes4"
        }
      ],
      "name": "supportsInterface",
      "outputs": [
        {
          "internalType": "bool",
          "name": "",
          "type": "bool"
        }
      ],
      "stateMutability": "view",
      "type": "function"
    },
    {
      "inputs": [],
      "name": "symbol",
      "outputs": [
        {
          "internalType": "string",
          "name": "",
          "type": "string"
        }
      ],
      "stateMutability": "view",
      "type": "function"
    },
    {
      "inputs": [
        {
          "internalType": "uint256",
          "name": "index",
          "type": "uint256"
        }
      ],
      "name": "tokenByIndex",
      "outputs": [
        {
          "internalType": "uint256",
          "name": "",
          "type": "uint256"
        }
      ],
      "stateMutability": "view",
      "type": "function"
    },
    {
      "inputs": [
        {
          "internalType": "address",
          "name": "owner",
          "type": "address"
        },
        {
          "internalType": "uint256",
          "name": "index",
          "type": "uint256"
        }
      ],
      "name": "tokenOfOwnerByIndex",
      "outputs": [
        {
          "internalType": "uint256",
          "name": "",
          "type": "uint256"
        }
      ],
      "stateMutability": "view",
      "type": "function"
    },
    {
      "inputs": [
        {
          "internalType": "uint256",
          "name": "tokenId",
          "type": "uint256"
        }
      ],
      "name": "tokenURI",
      "outputs": [
        {
          "internalType": "string",
          "name": "",
          "type": "string"
        }
      ],
      "stateMutability": "view",
      "type": "function"
    },
    {
      "inputs": [],
      "name": "totalSupply",
      "outputs": [
        {
          "internalType": "uint256",
          "name": "",
          "type": "uint256"
        }
      ],
      "stateMutability": "view",
      "type": "function"
    },
    {
      "inputs": [
        {
          "internalType": "address",
          "name": "from",
          "type": "address"
        },
        {
          "internalType": "address",
          "name": "to",
          "type": "address"
        },
        {
          "internalType": "uint256",
          "name": "tokenId",
          "type": "uint256"
        }
      ],
      "name": "transferFrom",
      "outputs": [],
      "stateMutability": "nonpayable",
      "type": "function"
    },
    {
      "inputs": [
        {
          "internalType": "address",
          "name": "newOwner",
          "type": "address"
        }
      ],
      "name": "transferOwnership",
      "outputs": [],
      "stateMutability": "nonpayable",
      "type": "function"
    }
  ],
  "bytecode": "0x60806040523480156200001157600080fd5b50604051620054cd380380620054cd8339818101604052810190620000379190620005a4565b806040516020016200004a9190620006bc565b6040516020818303038152906040526040516020016200006b91906200077f565b60405160208183030381529060405262000090826200015a60201b620016721760201c565b604051602001620000a29190620006bc565b6040516020818303038152906040528160009081620000c29190620009e5565b508060019081620000d49190620009e5565b505050620000f7620000eb6200020460201b60201c565b6200020c60201b60201c565b82600b60006101000a81548173ffffffffffffffffffffffffffffffffffffffff021916908373ffffffffffffffffffffffffffffffffffffffff16021790555081600c8190555080600d9081620001509190620009e5565b5050505062000bc0565b6060600082905060005b8151811015620001fa576200019f82828151811062000188576200018762000acc565b5b602001015160f81c60f81b620002d260201b60201c565b828281518110620001b557620001b462000acc565b5b60200101907effffffffffffffffffffffffffffffffffffffffffffffffffffffffffffff1916908160001a9053508080620001f19062000b2a565b91505062000164565b5080915050919050565b600033905090565b6000600a60009054906101000a900473ffffffffffffffffffffffffffffffffffffffff16905081600a60006101000a81548173ffffffffffffffffffffffffffffffffffffffff021916908373ffffffffffffffffffffffffffffffffffffffff1602179055508173ffffffffffffffffffffffffffffffffffffffff168173ffffffffffffffffffffffffffffffffffffffff167f8be0079c531659141344cd1fd0a4f28419497f9722a3daafe3b4186f6b6457e060405160405180910390a35050565b6000606160f81b827effffffffffffffffffffffffffffffffffffffffffffffffffffffffffffff191610158015620003315750607a60f81b827effffffffffffffffffffffffffffffffffffffffffffffffffffffffffffff191611155b15620003545760208260f81c62000349919062000b84565b60f81b905062000358565b8190505b919050565b6000604051905090565b600080fd5b600080fd5b600073ffffffffffffffffffffffffffffffffffffffff82169050919050565b60006200039e8262000371565b9050919050565b6000620003b28262000391565b9050919050565b620003c481620003a5565b8114620003d057600080fd5b50565b600081519050620003e481620003b9565b92915050565b6000819050919050565b620003ff81620003ea565b81146200040b57600080fd5b50565b6000815190506200041f81620003f4565b92915050565b600080fd5b600080fd5b6000601f19601f8301169050919050565b7f4e487b7100000000000000000000000000000000000000000000000000000000600052604160045260246000fd5b6200047a826200042f565b810181811067ffffffffffffffff821117156200049c576200049b62000440565b5b80604052505050565b6000620004b16200035d565b9050620004bf82826200046f565b919050565b600067ffffffffffffffff821115620004e257620004e162000440565b5b620004ed826200042f565b9050602081019050919050565b60005b838110156200051a578082015181840152602081019050620004fd565b60008484015250505050565b60006200053d6200053784620004c4565b620004a5565b9050828152602081018484840111156200055c576200055b6200042a565b5b62000569848285620004fa565b509392505050565b600082601f83011262000589576200058862000425565b5b81516200059b84826020860162000526565b91505092915050565b600080600060608486031215620005c057620005bf62000367565b5b6000620005d086828701620003d3565b9350506020620005e3868287016200040e565b925050604084015167ffffffffffffffff8111156200060757620006066200036c565b5b620006158682870162000571565b9150509250925092565b600081905092915050565b7f2e00000000000000000000000000000000000000000000000000000000000000600082015250565b6000620006626001836200061f565b91506200066f826200062a565b600182019050919050565b600081519050919050565b600062000692826200067a565b6200069e81856200061f565b9350620006b0818560208601620004fa565b80840191505092915050565b6000620006c98262000653565b9150620006d7828462000685565b915081905092915050565b600081519050919050565b600081905092915050565b60006200070582620006e2565b620007118185620006ed565b935062000723818560208601620004fa565b80840191505092915050565b7f20646f6d61696e73000000000000000000000000000000000000000000000000600082015250565b6000620007676008836200061f565b915062000774826200072f565b600882019050919050565b60006200078d8284620006f8565b91506200079a8262000758565b915081905092915050565b7f4e487b7100000000000000000000000000000000000000000000000000000000600052602260045260246000fd5b60006002820490506001821680620007ed57607f821691505b602082108103620008035762000802620007a5565b5b50919050565b60008190508160005260206000209050919050565b60006020601f8301049050919050565b600082821b905092915050565b6000600883026200086d7fffffffffffffffffffffffffffffffffffffffffffffffffffffffffffffffff826200082e565b6200087986836200082e565b95508019841693508086168417925050509392505050565b6000819050919050565b6000819050919050565b6000620008c6620008c0620008ba8462000891565b6200089b565b62000891565b9050919050565b6000819050919050565b620008e283620008a5565b620008fa620008f182620008cd565b8484546200083b565b825550505050565b600090565b6200091162000902565b6200091e818484620008d7565b505050565b5b8181101562000946576200093a60008262000907565b60018101905062000924565b5050565b601f82111562000995576200095f8162000809565b6200096a846200081e565b810160208510156200097a578190505b6200099262000989856200081e565b83018262000923565b50505b505050565b600082821c905092915050565b6000620009ba600019846008026200099a565b1980831691505092915050565b6000620009d58383620009a7565b9150826002028217905092915050565b620009f0826200067a565b67ffffffffffffffff81111562000a0c5762000a0b62000440565b5b62000a188254620007d4565b62000a258282856200094a565b600060209050601f83116001811462000a5d576000841562000a48578287015190505b62000a548582620009c7565b86555062000ac4565b601f19841662000a6d8662000809565b60005b8281101562000a975784890151825560018201915060208501945060208101905062000a70565b8683101562000ab7578489015162000ab3601f891682620009a7565b8355505b6001600288020188555050505b505050505050565b7f4e487b7100000000000000000000000000000000000000000000000000000000600052603260045260246000fd5b7f4e487b7100000000000000000000000000000000000000000000000000000000600052601160045260246000fd5b600062000b378262000891565b91507fffffffffffffffffffffffffffffffffffffffffffffffffffffffffffffffff820362000b6c5762000b6b62000afb565b5b600182019050919050565b600060ff82169050919050565b600062000b918262000b77565b915062000b9e8362000b77565b9250828203905060ff81111562000bba5762000bb962000afb565b5b92915050565b6148fd8062000bd06000396000f3fe608060405234801561001057600080fd5b50600436106102115760003560e01c80637b10399911610125578063c475abff116100ad578063ddf7fcb01161007c578063ddf7fcb01461064c578063e985e9c51461066a578063f2fde38b1461069a578063f6a74ed7146106b6578063fca247ac146106d257610211565b8063c475abff1461058c578063c87b56dd146105bc578063d6e4fa86146105ec578063da8c229e1461061c57610211565b8063a22cb465116100f4578063a22cb465146104fc578063a7fc7a0714610518578063a9ad1b0f14610534578063b88d4fde14610552578063c1a287e21461056e57610211565b80637b103999146104725780638da5cb5b1461049057806395d89b41146104ae57806396e494e8146104cc57610211565b80632f745c59116101a857806355f804b31161017757806355f804b3146103ce5780636352211e146103ea5780636c0360eb1461041a57806370a0823114610438578063715018a61461046857610211565b80632f745c591461033657806342842e0e146103665780634e543b26146103825780634f6ccce71461039e57610211565b80630e297b45116101e45780630e297b45146102b057806318160ddd146102e057806323b872dd146102fe57806328ed4f6c1461031a57610211565b806301ffc9a71461021657806306fdde0314610246578063081812fc14610264578063095ea7b314610294575b600080fd5b610230600480360381019061022b9190613220565b610702565b60405161023d9190613268565b60405180910390f35b61024e61077c565b60405161025b9190613313565b60405180910390f35b61027e6004803603810190610279919061336b565b61080e565b60405161028b91906133d9565b60405180910390f35b6102ae60048036038101906102a99190613420565b610854565b005b6102ca60048036038101906102c59190613460565b61096b565b6040516102d791906134c2565b60405180910390f35b6102e8610983565b6040516102f591906134c2565b60405180910390f35b610318600480360381019061031391906134dd565b610990565b005b610334600480360381019061032f9190613530565b6109f0565b005b610350600480360381019061034b9190613420565b610b84565b60405161035d91906134c2565b60405180910390f35b610380600480360381019061037b91906134dd565b610c29565b005b61039c60048036038101906103979190613570565b610c49565b005b6103b860048036038101906103b3919061336b565b610ce5565b6040516103c591906134c2565b60405180910390f35b6103e860048036038101906103e39190613602565b610d56565b005b61040460048036038101906103ff919061336b565b610d74565b60405161041191906133d9565b60405180910390f35b610422610da5565b60405161042f9190613313565b60405180910390f35b610452600480360381019061044d9190613570565b610e33565b60405161045f91906134c2565b60405180910390f35b610470610eea565b005b61047a610efe565b60405161048791906136ae565b60405180910390f35b610498610f24565b6040516104a591906133d9565b60405180910390f35b6104b6610f4e565b6040516104c39190613313565b60405180910390f35b6104e660048036038101906104e1919061336b565b610fe0565b6040516104f39190613268565b60405180910390f35b610516600480360381019061051191906136f5565b61100d565b005b610532600480360381019061052d9190613570565b611023565b005b61053c6110c9565b6040516105499190613313565b60405180910390f35b61056c60048036038101906105679190613865565b611157565b005b6105766111b9565b60405161058391906134c2565b60405180910390f35b6105a660048036038101906105a191906138e8565b6111c0565b6040516105b391906134c2565b60405180910390f35b6105d660048036038101906105d1919061336b565b6113f2565b6040516105e39190613313565b60405180910390f35b6106066004803603810190610601919061336b565b61145a565b60405161061391906134c2565b60405180910390f35b61063660048036038101906106319190613570565b611477565b6040516106439190613268565b60405180910390f35b610654611497565b6040516106619190613941565b60405180910390f35b610684600480360381019061067f919061395c565b61149d565b6040516106919190613268565b60405180910390f35b6106b460048036038101906106af9190613570565b611531565b005b6106d060048036038101906106cb9190613570565b6115b4565b005b6106ec60048036038101906106e79190613460565b61165a565b6040516106f991906134c2565b60405180910390f35b60007f780e9d63000000000000000000000000000000000000000000000000000000007bffffffffffffffffffffffffffffffffffffffffffffffffffffffff1916827bffffffffffffffffffffffffffffffffffffffffffffffffffffffff1916148061077557506107748261170a565b5b9050919050565b60606000805461078b906139cb565b80601f01602080910402602001604051908101604052809291908181526020018280546107b7906139cb565b80156108045780601f106107d957610100808354040283529160200191610804565b820191906000526020600020905b8154815290600101906020018083116107e757829003601f168201915b5050505050905090565b6000610819826117ec565b6004600083815260200190815260200160002060009054906101000a900473ffffffffffffffffffffffffffffffffffffffff169050919050565b600061085f82611837565b90508073ffffffffffffffffffffffffffffffffffffffff168373ffffffffffffffffffffffffffffffffffffffff16036108cf576040517f08c379a00000000000000000000000000000000000000000000000000000000081526004016108c690613a6e565b60405180910390fd5b8073ffffffffffffffffffffffffffffffffffffffff166108ee6118bd565b73ffffffffffffffffffffffffffffffffffffffff16148061091d575061091c816109176118bd565b61149d565b5b61095c576040517f08c379a000000000000000000000000000000000000000000000000000000000815260040161095390613b00565b60405180910390fd5b61096683836118c5565b505050565b600061097a848484600061197e565b90509392505050565b6000600880549050905090565b6109a161099b6118bd565b82611c54565b6109e0576040517f08c379a00000000000000000000000000000000000000000000000000000000081526004016109d790613b92565b60405180910390fd5b6109eb838383611ce9565b505050565b3073ffffffffffffffffffffffffffffffffffffffff16600b60009054906101000a900473ffffffffffffffffffffffffffffffffffffffff1673ffffffffffffffffffffffffffffffffffffffff166302571be3600c546040518263ffffffff1660e01b8152600401610a649190613941565b602060405180830381865afa158015610a81573d6000803e3d6000fd5b505050506040513d601f19601f82011682018060405250810190610aa59190613bc7565b73ffffffffffffffffffffffffffffffffffffffff1614610ac557600080fd5b610acf3383611c54565b610ad857600080fd5b600b60009054906101000a900473ffffffffffffffffffffffffffffffffffffffff1673ffffffffffffffffffffffffffffffffffffffff166306ab5923600c548460001b846040518463ffffffff1660e01b8152600401610b3c93929190613bf4565b6020604051808303816000875af1158015610b5b573d6000803e3d6000fd5b505050506040513d601f19601f82011682018060405250810190610b7f9190613c57565b505050565b6000610b8f83610e33565b8210610bd0576040517f08c379a0000000000000000000000000000000000000000000000000000000008152600401610bc790613cf6565b60405180910390fd5b600660008473ffffffffffffffffffffffffffffffffffffffff1673ffffffffffffffffffffffffffffffffffffffff168152602001908152602001600020600083815260200190815260200160002054905092915050565b610c4483838360405180602001604052806000815250611157565b505050565b610c51611fe2565b600b60009054906101000a900473ffffffffffffffffffffffffffffffffffffffff1673ffffffffffffffffffffffffffffffffffffffff16631896f70a600c54836040518363ffffffff1660e01b8152600401610cb0929190613d16565b600060405180830381600087803b158015610cca57600080fd5b505af1158015610cde573d6000803e3d6000fd5b5050505050565b6000610cef610983565b8210610d30576040517f08c379a0000000000000000000000000000000000000000000000000000000008152600401610d2790613db1565b60405180910390fd5b60088281548110610d4457610d43613dd1565b5b90600052602060002001549050919050565b610d5e611fe2565b8181600e9182610d6f929190613fad565b505050565b600042600f60008481526020019081526020016000205411610d9557600080fd5b610d9e82611837565b9050919050565b600e8054610db2906139cb565b80601f0160208091040260200160405190810160405280929190818152602001828054610dde906139cb565b8015610e2b5780601f10610e0057610100808354040283529160200191610e2b565b820191906000526020600020905b815481529060010190602001808311610e0e57829003601f168201915b505050505081565b60008073ffffffffffffffffffffffffffffffffffffffff168273ffffffffffffffffffffffffffffffffffffffff1603610ea3576040517f08c379a0000000000000000000000000000000000000000000000000000000008152600401610e9a906140ef565b60405180910390fd5b600360008373ffffffffffffffffffffffffffffffffffffffff1673ffffffffffffffffffffffffffffffffffffffff168152602001908152602001600020549050919050565b610ef2611fe2565b610efc6000612060565b565b600b60009054906101000a900473ffffffffffffffffffffffffffffffffffffffff1681565b6000600a60009054906101000a900473ffffffffffffffffffffffffffffffffffffffff16905090565b606060018054610f5d906139cb565b80601f0160208091040260200160405190810160405280929190818152602001828054610f89906139cb565b8015610fd65780601f10610fab57610100808354040283529160200191610fd6565b820191906000526020600020905b815481529060010190602001808311610fb957829003601f168201915b5050505050905090565b6000426276a700600f600085815260200190815260200160002054611005919061413e565b109050919050565b61101f6110186118bd565b8383612126565b5050565b61102b611fe2565b6001601060008373ffffffffffffffffffffffffffffffffffffffff1673ffffffffffffffffffffffffffffffffffffffff16815260200190815260200160002060006101000a81548160ff0219169083151502179055508073ffffffffffffffffffffffffffffffffffffffff167f0a8bb31534c0ed46f380cb867bd5c803a189ced9a764e30b3a4991a9901d747460405160405180910390a250565b600d80546110d6906139cb565b80601f0160208091040260200160405190810160405280929190818152602001828054611102906139cb565b801561114f5780601f106111245761010080835404028352916020019161114f565b820191906000526020600020905b81548152906001019060200180831161113257829003601f168201915b505050505081565b6111686111626118bd565b83611c54565b6111a7576040517f08c379a000000000000000000000000000000000000000000000000000000000815260040161119e90613b92565b60405180910390fd5b6111b384848484612292565b50505050565b6276a70081565b60003073ffffffffffffffffffffffffffffffffffffffff16600b60009054906101000a900473ffffffffffffffffffffffffffffffffffffffff1673ffffffffffffffffffffffffffffffffffffffff166302571be3600c546040518263ffffffff1660e01b81526004016112369190613941565b602060405180830381865afa158015611253573d6000803e3d6000fd5b505050506040513d601f19601f820116820180604052508101906112779190613bc7565b73ffffffffffffffffffffffffffffffffffffffff161461129757600080fd5b601060003373ffffffffffffffffffffffffffffffffffffffff1673ffffffffffffffffffffffffffffffffffffffff16815260200190815260200160002060009054906101000a900460ff166112ed57600080fd5b426276a700600f600086815260200190815260200160002054611310919061413e565b101561131b57600080fd5b6276a7008261132a919061413e565b6276a70083600f60008781526020019081526020016000205461134d919061413e565b611357919061413e565b1161136157600080fd5b81600f60008581526020019081526020016000206000828254611384919061413e565b92505081905550827f9b87a00e30f1ac65d898f070f8a3488fe60517182d0a2098e1b4b93a54aa9bd6600f6000868152602001908152602001600020546040516113ce91906134c2565b60405180910390a2600f600084815260200190815260200160002054905092915050565b60606113fd826117ec565b60006114076122ee565b905060008151116114275760405180602001604052806000815250611452565b8061143184612380565b6040516020016114429291906141ae565b6040516020818303038152906040525b915050919050565b6000600f6000838152602001908152602001600020549050919050565b60106020528060005260406000206000915054906101000a900460ff1681565b600c5481565b6000600560008473ffffffffffffffffffffffffffffffffffffffff1673ffffffffffffffffffffffffffffffffffffffff16815260200190815260200160002060008373ffffffffffffffffffffffffffffffffffffffff1673ffffffffffffffffffffffffffffffffffffffff16815260200190815260200160002060009054906101000a900460ff16905092915050565b611539611fe2565b600073ffffffffffffffffffffffffffffffffffffffff168173ffffffffffffffffffffffffffffffffffffffff16036115a8576040517f08c379a000000000000000000000000000000000000000000000000000000000815260040161159f90614244565b60405180910390fd5b6115b181612060565b50565b6115bc611fe2565b6000601060008373ffffffffffffffffffffffffffffffffffffffff1673ffffffffffffffffffffffffffffffffffffffff16815260200190815260200160002060006101000a81548160ff0219169083151502179055508073ffffffffffffffffffffffffffffffffffffffff167f33d83959be2573f5453b12eb9d43b3499bc57d96bd2f067ba44803c859e8111360405160405180910390a250565b6000611669848484600161197e565b90509392505050565b6060600082905060005b8151811015611700576116ab82828151811061169b5761169a613dd1565b5b602001015160f81c60f81b61244e565b8282815181106116be576116bd613dd1565b5b60200101907effffffffffffffffffffffffffffffffffffffffffffffffffffffffffffff1916908160001a90535080806116f890614264565b91505061167c565b5080915050919050565b60007f80ac58cd000000000000000000000000000000000000000000000000000000007bffffffffffffffffffffffffffffffffffffffffffffffffffffffff1916827bffffffffffffffffffffffffffffffffffffffffffffffffffffffff191614806117d557507f5b5e139f000000000000000000000000000000000000000000000000000000007bffffffffffffffffffffffffffffffffffffffffffffffffffffffff1916827bffffffffffffffffffffffffffffffffffffffffffffffffffffffff1916145b806117e557506117e4826124d4565b5b9050919050565b6117f58161253e565b611834576040517f08c379a000000000000000000000000000000000000000000000000000000000815260040161182b906142f8565b60405180910390fd5b50565b6000806118438361257f565b9050600073ffffffffffffffffffffffffffffffffffffffff168173ffffffffffffffffffffffffffffffffffffffff16036118b4576040517f08c379a00000000000000000000000000000000000000000000000000000000081526004016118ab906142f8565b60405180910390fd5b80915050919050565b600033905090565b816004600083815260200190815260200160002060006101000a81548173ffffffffffffffffffffffffffffffffffffffff021916908373ffffffffffffffffffffffffffffffffffffffff160217905550808273ffffffffffffffffffffffffffffffffffffffff1661193883611837565b73ffffffffffffffffffffffffffffffffffffffff167f8c5be1e5ebec7d5bd14f71427d1e84f3dd0314c0f7b2291e5b200ac8c7c3b92560405160405180910390a45050565b60003073ffffffffffffffffffffffffffffffffffffffff16600b60009054906101000a900473ffffffffffffffffffffffffffffffffffffffff1673ffffffffffffffffffffffffffffffffffffffff166302571be3600c546040518263ffffffff1660e01b81526004016119f49190613941565b602060405180830381865afa158015611a11573d6000803e3d6000fd5b505050506040513d601f19601f82011682018060405250810190611a359190613bc7565b73ffffffffffffffffffffffffffffffffffffffff1614611a5557600080fd5b601060003373ffffffffffffffffffffffffffffffffffffffff1673ffffffffffffffffffffffffffffffffffffffff16815260200190815260200160002060009054906101000a900460ff16611aab57600080fd5b611ab485610fe0565b611abd57600080fd5b6276a70042611acc919061413e565b6276a7008442611adc919061413e565b611ae6919061413e565b11611af057600080fd5b8242611afc919061413e565b600f600087815260200190815260200160002081905550611b1c8561253e565b15611b2b57611b2a856125bc565b5b611b35848661270a565b8115611be457600b60009054906101000a900473ffffffffffffffffffffffffffffffffffffffff1673ffffffffffffffffffffffffffffffffffffffff166306ab5923600c548760001b876040518463ffffffff1660e01b8152600401611b9f93929190613bf4565b6020604051808303816000875af1158015611bbe573d6000803e3d6000fd5b505050506040513d601f19601f82011682018060405250810190611be29190613c57565b505b8373ffffffffffffffffffffffffffffffffffffffff16857fb3d987963d01b2f68493b4bdb130988f157ea43070d4ad840fee0466ed9370d98542611c29919061413e565b604051611c3691906134c2565b60405180910390a38242611c4a919061413e565b9050949350505050565b600080611c6083611837565b90508073ffffffffffffffffffffffffffffffffffffffff168473ffffffffffffffffffffffffffffffffffffffff161480611ca25750611ca1818561149d565b5b80611ce057508373ffffffffffffffffffffffffffffffffffffffff16611cc88461080e565b73ffffffffffffffffffffffffffffffffffffffff16145b91505092915050565b8273ffffffffffffffffffffffffffffffffffffffff16611d0982611837565b73ffffffffffffffffffffffffffffffffffffffff1614611d5f576040517f08c379a0000000000000000000000000000000000000000000000000000000008152600401611d569061438a565b60405180910390fd5b600073ffffffffffffffffffffffffffffffffffffffff168273ffffffffffffffffffffffffffffffffffffffff1603611dce576040517f08c379a0000000000000000000000000000000000000000000000000000000008152600401611dc59061441c565b60405180910390fd5b611ddb8383836001612927565b8273ffffffffffffffffffffffffffffffffffffffff16611dfb82611837565b73ffffffffffffffffffffffffffffffffffffffff1614611e51576040517f08c379a0000000000000000000000000000000000000000000000000000000008152600401611e489061438a565b60405180910390fd5b6004600082815260200190815260200160002060006101000a81549073ffffffffffffffffffffffffffffffffffffffff02191690556001600360008573ffffffffffffffffffffffffffffffffffffffff1673ffffffffffffffffffffffffffffffffffffffff168152602001908152602001600020600082825403925050819055506001600360008473ffffffffffffffffffffffffffffffffffffffff1673ffffffffffffffffffffffffffffffffffffffff16815260200190815260200160002060008282540192505081905550816002600083815260200190815260200160002060006101000a81548173ffffffffffffffffffffffffffffffffffffffff021916908373ffffffffffffffffffffffffffffffffffffffff160217905550808273ffffffffffffffffffffffffffffffffffffffff168473ffffffffffffffffffffffffffffffffffffffff167fddf252ad1be2c89b69c2b068fc378daa952ba7f163c4a11628f55a4df523b3ef60405160405180910390a4611fdd8383836001612a85565b505050565b611fea6118bd565b73ffffffffffffffffffffffffffffffffffffffff16612008610f24565b73ffffffffffffffffffffffffffffffffffffffff161461205e576040517f08c379a000000000000000000000000000000000000000000000000000000000815260040161205590614488565b60405180910390fd5b565b6000600a60009054906101000a900473ffffffffffffffffffffffffffffffffffffffff16905081600a60006101000a81548173ffffffffffffffffffffffffffffffffffffffff021916908373ffffffffffffffffffffffffffffffffffffffff1602179055508173ffffffffffffffffffffffffffffffffffffffff168173ffffffffffffffffffffffffffffffffffffffff167f8be0079c531659141344cd1fd0a4f28419497f9722a3daafe3b4186f6b6457e060405160405180910390a35050565b8173ffffffffffffffffffffffffffffffffffffffff168373ffffffffffffffffffffffffffffffffffffffff1603612194576040517f08c379a000000000000000000000000000000000000000000000000000000000815260040161218b906144f4565b60405180910390fd5b80600560008573ffffffffffffffffffffffffffffffffffffffff1673ffffffffffffffffffffffffffffffffffffffff16815260200190815260200160002060008473ffffffffffffffffffffffffffffffffffffffff1673ffffffffffffffffffffffffffffffffffffffff16815260200190815260200160002060006101000a81548160ff0219169083151502179055508173ffffffffffffffffffffffffffffffffffffffff168373ffffffffffffffffffffffffffffffffffffffff167f17307eab39ab6107e8899845ad3d59bd9653f200f220920489ca2b5937696c31836040516122859190613268565b60405180910390a3505050565b61229d848484611ce9565b6122a984848484612a8b565b6122e8576040517f08c379a00000000000000000000000000000000000000000000000000000000081526004016122df90614586565b60405180910390fd5b50505050565b6060600e80546122fd906139cb565b80601f0160208091040260200160405190810160405280929190818152602001828054612329906139cb565b80156123765780601f1061234b57610100808354040283529160200191612376565b820191906000526020600020905b81548152906001019060200180831161235957829003601f168201915b5050505050905090565b60606000600161238f84612c12565b01905060008167ffffffffffffffff8111156123ae576123ad61373a565b5b6040519080825280601f01601f1916602001820160405280156123e05781602001600182028036833780820191505090505b509050600082602001820190505b600115612443578080600190039150507f3031323334353637383961626364656600000000000000000000000000000000600a86061a8153600a8581612437576124366145a6565b5b049450600085036123ee575b819350505050919050565b6000606160f81b827effffffffffffffffffffffffffffffffffffffffffffffffffffffffffffff1916101580156124ac5750607a60f81b827effffffffffffffffffffffffffffffffffffffffffffffffffffffffffffff191611155b156124cb5760208260f81c6124c191906145e2565b60f81b90506124cf565b8190505b919050565b60007f01ffc9a7000000000000000000000000000000000000000000000000000000007bffffffffffffffffffffffffffffffffffffffffffffffffffffffff1916827bffffffffffffffffffffffffffffffffffffffffffffffffffffffff1916149050919050565b60008073ffffffffffffffffffffffffffffffffffffffff166125608361257f565b73ffffffffffffffffffffffffffffffffffffffff1614159050919050565b60006002600083815260200190815260200160002060009054906101000a900473ffffffffffffffffffffffffffffffffffffffff169050919050565b60006125c782611837565b90506125d7816000846001612927565b6125e082611837565b90506004600083815260200190815260200160002060006101000a81549073ffffffffffffffffffffffffffffffffffffffff02191690556001600360008373ffffffffffffffffffffffffffffffffffffffff1673ffffffffffffffffffffffffffffffffffffffff168152602001908152602001600020600082825403925050819055506002600083815260200190815260200160002060006101000a81549073ffffffffffffffffffffffffffffffffffffffff021916905581600073ffffffffffffffffffffffffffffffffffffffff168273ffffffffffffffffffffffffffffffffffffffff167fddf252ad1be2c89b69c2b068fc378daa952ba7f163c4a11628f55a4df523b3ef60405160405180910390a4612706816000846001612a85565b5050565b600073ffffffffffffffffffffffffffffffffffffffff168273ffffffffffffffffffffffffffffffffffffffff1603612779576040517f08c379a000000000000000000000000000000000000000000000000000000000815260040161277090614663565b60405180910390fd5b6127828161253e565b156127c2576040517f08c379a00000000000000000000000000000000000000000000000000000000081526004016127b9906146cf565b60405180910390fd5b6127d0600083836001612927565b6127d98161253e565b15612819576040517f08c379a0000000000000000000000000000000000000000000000000000000008152600401612810906146cf565b60405180910390fd5b6001600360008473ffffffffffffffffffffffffffffffffffffffff1673ffffffffffffffffffffffffffffffffffffffff16815260200190815260200160002060008282540192505081905550816002600083815260200190815260200160002060006101000a81548173ffffffffffffffffffffffffffffffffffffffff021916908373ffffffffffffffffffffffffffffffffffffffff160217905550808273ffffffffffffffffffffffffffffffffffffffff16600073ffffffffffffffffffffffffffffffffffffffff167fddf252ad1be2c89b69c2b068fc378daa952ba7f163c4a11628f55a4df523b3ef60405160405180910390a4612923600083836001612a85565b5050565b61293384848484612d65565b6001811115612977576040517f08c379a000000000000000000000000000000000000000000000000000000000815260040161296e90614761565b60405180910390fd5b6000829050600073ffffffffffffffffffffffffffffffffffffffff168573ffffffffffffffffffffffffffffffffffffffff16036129be576129b981612e8b565b6129fd565b8373ffffffffffffffffffffffffffffffffffffffff168573ffffffffffffffffffffffffffffffffffffffff16146129fc576129fb8582612ed4565b5b5b600073ffffffffffffffffffffffffffffffffffffffff168473ffffffffffffffffffffffffffffffffffffffff1603612a3f57612a3a81613041565b612a7e565b8473ffffffffffffffffffffffffffffffffffffffff168473ffffffffffffffffffffffffffffffffffffffff1614612a7d57612a7c8482613112565b5b5b5050505050565b50505050565b6000612aac8473ffffffffffffffffffffffffffffffffffffffff16613191565b15612c05578373ffffffffffffffffffffffffffffffffffffffff1663150b7a02612ad56118bd565b8786866040518563ffffffff1660e01b8152600401612af794939291906147d6565b6020604051808303816000875af1925050508015612b3357506040513d601f19601f82011682018060405250810190612b309190614837565b60015b612bb5573d8060008114612b63576040519150601f19603f3d011682016040523d82523d6000602084013e612b68565b606091505b506000815103612bad576040517f08c379a0000000000000000000000000000000000000000000000000000000008152600401612ba490614586565b60405180910390fd5b805181602001fd5b63150b7a0260e01b7bffffffffffffffffffffffffffffffffffffffffffffffffffffffff1916817bffffffffffffffffffffffffffffffffffffffffffffffffffffffff191614915050612c0a565b600190505b949350505050565b600080600090507a184f03e93ff9f4daa797ed6e38ed64bf6a1f0100000000000000008310612c70577a184f03e93ff9f4daa797ed6e38ed64bf6a1f0100000000000000008381612c6657612c656145a6565b5b0492506040810190505b6d04ee2d6d415b85acef81000000008310612cad576d04ee2d6d415b85acef81000000008381612ca357612ca26145a6565b5b0492506020810190505b662386f26fc100008310612cdc57662386f26fc100008381612cd257612cd16145a6565b5b0492506010810190505b6305f5e1008310612d05576305f5e1008381612cfb57612cfa6145a6565b5b0492506008810190505b6127108310612d2a576127108381612d2057612d1f6145a6565b5b0492506004810190505b60648310612d4d5760648381612d4357612d426145a6565b5b0492506002810190505b600a8310612d5c576001810190505b80915050919050565b6001811115612e8557600073ffffffffffffffffffffffffffffffffffffffff168473ffffffffffffffffffffffffffffffffffffffff1614612df95780600360008673ffffffffffffffffffffffffffffffffffffffff1673ffffffffffffffffffffffffffffffffffffffff1681526020019081526020016000206000828254612df19190614864565b925050819055505b600073ffffffffffffffffffffffffffffffffffffffff168373ffffffffffffffffffffffffffffffffffffffff1614612e845780600360008573ffffffffffffffffffffffffffffffffffffffff1673ffffffffffffffffffffffffffffffffffffffff1681526020019081526020016000206000828254612e7c919061413e565b925050819055505b5b50505050565b6008805490506009600083815260200190815260200160002081905550600881908060018154018082558091505060019003906000526020600020016000909190919091505550565b60006001612ee184610e33565b612eeb9190614864565b9050600060076000848152602001908152602001600020549050818114612fd0576000600660008673ffffffffffffffffffffffffffffffffffffffff1673ffffffffffffffffffffffffffffffffffffffff168152602001908152602001600020600084815260200190815260200160002054905080600660008773ffffffffffffffffffffffffffffffffffffffff1673ffffffffffffffffffffffffffffffffffffffff168152602001908152602001600020600084815260200190815260200160002081905550816007600083815260200190815260200160002081905550505b6007600084815260200190815260200160002060009055600660008573ffffffffffffffffffffffffffffffffffffffff1673ffffffffffffffffffffffffffffffffffffffff16815260200190815260200160002060008381526020019081526020016000206000905550505050565b600060016008805490506130559190614864565b905060006009600084815260200190815260200160002054905060006008838154811061308557613084613dd1565b5b9060005260206000200154905080600883815481106130a7576130a6613dd1565b5b9060005260206000200181905550816009600083815260200190815260200160002081905550600960008581526020019081526020016000206000905560088054806130f6576130f5614898565b5b6001900381819060005260206000200160009055905550505050565b600061311d83610e33565b905081600660008573ffffffffffffffffffffffffffffffffffffffff1673ffffffffffffffffffffffffffffffffffffffff168152602001908152602001600020600083815260200190815260200160002081905550806007600084815260200190815260200160002081905550505050565b6000808273ffffffffffffffffffffffffffffffffffffffff163b119050919050565b6000604051905090565b600080fd5b600080fd5b60007fffffffff0000000000000000000000000000000000000000000000000000000082169050919050565b6131fd816131c8565b811461320857600080fd5b50565b60008135905061321a816131f4565b92915050565b600060208284031215613236576132356131be565b5b60006132448482850161320b565b91505092915050565b60008115159050919050565b6132628161324d565b82525050565b600060208201905061327d6000830184613259565b92915050565b600081519050919050565b600082825260208201905092915050565b60005b838110156132bd5780820151818401526020810190506132a2565b60008484015250505050565b6000601f19601f8301169050919050565b60006132e582613283565b6132ef818561328e565b93506132ff81856020860161329f565b613308816132c9565b840191505092915050565b6000602082019050818103600083015261332d81846132da565b905092915050565b6000819050919050565b61334881613335565b811461335357600080fd5b50565b6000813590506133658161333f565b92915050565b600060208284031215613381576133806131be565b5b600061338f84828501613356565b91505092915050565b600073ffffffffffffffffffffffffffffffffffffffff82169050919050565b60006133c382613398565b9050919050565b6133d3816133b8565b82525050565b60006020820190506133ee60008301846133ca565b92915050565b6133fd816133b8565b811461340857600080fd5b50565b60008135905061341a816133f4565b92915050565b60008060408385031215613437576134366131be565b5b60006134458582860161340b565b925050602061345685828601613356565b9150509250929050565b600080600060608486031215613479576134786131be565b5b600061348786828701613356565b93505060206134988682870161340b565b92505060406134a986828701613356565b9150509250925092565b6134bc81613335565b82525050565b60006020820190506134d760008301846134b3565b92915050565b6000806000606084860312156134f6576134f56131be565b5b60006135048682870161340b565b93505060206135158682870161340b565b925050604061352686828701613356565b9150509250925092565b60008060408385031215613547576135466131be565b5b600061355585828601613356565b92505060206135668582860161340b565b9150509250929050565b600060208284031215613586576135856131be565b5b60006135948482850161340b565b91505092915050565b600080fd5b600080fd5b600080fd5b60008083601f8401126135c2576135c161359d565b5b8235905067ffffffffffffffff8111156135df576135de6135a2565b5b6020830191508360018202830111156135fb576135fa6135a7565b5b9250929050565b60008060208385031215613619576136186131be565b5b600083013567ffffffffffffffff811115613637576136366131c3565b5b613643858286016135ac565b92509250509250929050565b6000819050919050565b600061367461366f61366a84613398565b61364f565b613398565b9050919050565b600061368682613659565b9050919050565b60006136988261367b565b9050919050565b6136a88161368d565b82525050565b60006020820190506136c3600083018461369f565b92915050565b6136d28161324d565b81146136dd57600080fd5b50565b6000813590506136ef816136c9565b92915050565b6000806040838503121561370c5761370b6131be565b5b600061371a8582860161340b565b925050602061372b858286016136e0565b9150509250929050565b600080fd5b7f4e487b7100000000000000000000000000000000000000000000000000000000600052604160045260246000fd5b613772826132c9565b810181811067ffffffffffffffff821117156137915761379061373a565b5b80604052505050565b60006137a46131b4565b90506137b08282613769565b919050565b600067ffffffffffffffff8211156137d0576137cf61373a565b5b6137d9826132c9565b9050602081019050919050565b82818337600083830152505050565b6000613808613803846137b5565b61379a565b90508281526020810184848401111561382457613823613735565b5b61382f8482856137e6565b509392505050565b600082601f83011261384c5761384b61359d565b5b813561385c8482602086016137f5565b91505092915050565b6000806000806080858703121561387f5761387e6131be565b5b600061388d8782880161340b565b945050602061389e8782880161340b565b93505060406138af87828801613356565b925050606085013567ffffffffffffffff8111156138d0576138cf6131c3565b5b6138dc87828801613837565b91505092959194509250565b600080604083850312156138ff576138fe6131be565b5b600061390d85828601613356565b925050602061391e85828601613356565b9150509250929050565b6000819050919050565b61393b81613928565b82525050565b60006020820190506139566000830184613932565b92915050565b60008060408385031215613973576139726131be565b5b60006139818582860161340b565b92505060206139928582860161340b565b9150509250929050565b7f4e487b7100000000000000000000000000000000000000000000000000000000600052602260045260246000fd5b600060028204905060018216806139e357607f821691505b6020821081036139f6576139f561399c565b5b50919050565b7f4552433732313a20617070726f76616c20746f2063757272656e74206f776e6560008201527f7200000000000000000000000000000000000000000000000000000000000000602082015250565b6000613a5860218361328e565b9150613a63826139fc565b604082019050919050565b60006020820190508181036000830152613a8781613a4b565b9050919050565b7f4552433732313a20617070726f76652063616c6c6572206973206e6f7420746f60008201527f6b656e206f776e6572206f7220617070726f76656420666f7220616c6c000000602082015250565b6000613aea603d8361328e565b9150613af582613a8e565b604082019050919050565b60006020820190508181036000830152613b1981613add565b9050919050565b7f4552433732313a2063616c6c6572206973206e6f7420746f6b656e206f776e6560008201527f72206f7220617070726f76656400000000000000000000000000000000000000602082015250565b6000613b7c602d8361328e565b9150613b8782613b20565b604082019050919050565b60006020820190508181036000830152613bab81613b6f565b9050919050565b600081519050613bc1816133f4565b92915050565b600060208284031215613bdd57613bdc6131be565b5b6000613beb84828501613bb2565b91505092915050565b6000606082019050613c096000830186613932565b613c166020830185613932565b613c2360408301846133ca565b949350505050565b613c3481613928565b8114613c3f57600080fd5b50565b600081519050613c5181613c2b565b92915050565b600060208284031215613c6d57613c6c6131be565b5b6000613c7b84828501613c42565b91505092915050565b7f455243373231456e756d657261626c653a206f776e657220696e646578206f7560008201527f74206f6620626f756e6473000000000000000000000000000000000000000000602082015250565b6000613ce0602b8361328e565b9150613ceb82613c84565b604082019050919050565b60006020820190508181036000830152613d0f81613cd3565b9050919050565b6000604082019050613d2b6000830185613932565b613d3860208301846133ca565b9392505050565b7f455243373231456e756d657261626c653a20676c6f62616c20696e646578206f60008201527f7574206f6620626f756e64730000000000000000000000000000000000000000602082015250565b6000613d9b602c8361328e565b9150613da682613d3f565b604082019050919050565b60006020820190508181036000830152613dca81613d8e565b9050919050565b7f4e487b7100000000000000000000000000000000000000000000000000000000600052603260045260246000fd5b600082905092915050565b60008190508160005260206000209050919050565b60006020601f8301049050919050565b600082821b905092915050565b600060088302613e6d7fffffffffffffffffffffffffffffffffffffffffffffffffffffffffffffffff82613e30565b613e778683613e30565b95508019841693508086168417925050509392505050565b6000613eaa613ea5613ea084613335565b61364f565b613335565b9050919050565b6000819050919050565b613ec483613e8f565b613ed8613ed082613eb1565b848454613e3d565b825550505050565b600090565b613eed613ee0565b613ef8818484613ebb565b505050565b5b81811015613f1c57613f11600082613ee5565b600181019050613efe565b5050565b601f821115613f6157613f3281613e0b565b613f3b84613e20565b81016020851015613f4a578190505b613f5e613f5685613e20565b830182613efd565b50505b505050565b600082821c905092915050565b6000613f8460001984600802613f66565b1980831691505092915050565b6000613f9d8383613f73565b9150826002028217905092915050565b613fb78383613e00565b67ffffffffffffffff811115613fd057613fcf61373a565b5b613fda82546139cb565b613fe5828285613f20565b6000601f8311600181146140145760008415614002578287013590505b61400c8582613f91565b865550614074565b601f19841661402286613e0b565b60005b8281101561404a57848901358255600182019150602085019450602081019050614025565b868310156140675784890135614063601f891682613f73565b8355505b6001600288020188555050505b50505050505050565b7f4552433732313a2061646472657373207a65726f206973206e6f74206120766160008201527f6c6964206f776e65720000000000000000000000000000000000000000000000602082015250565b60006140d960298361328e565b91506140e48261407d565b604082019050919050565b60006020820190508181036000830152614108816140cc565b9050919050565b7f4e487b7100000000000000000000000000000000000000000000000000000000600052601160045260246000fd5b600061414982613335565b915061415483613335565b925082820190508082111561416c5761416b61410f565b5b92915050565b600081905092915050565b600061418882613283565b6141928185614172565b93506141a281856020860161329f565b80840191505092915050565b60006141ba828561417d565b91506141c6828461417d565b91508190509392505050565b7f4f776e61626c653a206e6577206f776e657220697320746865207a65726f206160008201527f6464726573730000000000000000000000000000000000000000000000000000602082015250565b600061422e60268361328e565b9150614239826141d2565b604082019050919050565b6000602082019050818103600083015261425d81614221565b9050919050565b600061426f82613335565b91507fffffffffffffffffffffffffffffffffffffffffffffffffffffffffffffffff82036142a1576142a061410f565b5b600182019050919050565b7f4552433732313a20696e76616c696420746f6b656e2049440000000000000000600082015250565b60006142e260188361328e565b91506142ed826142ac565b602082019050919050565b60006020820190508181036000830152614311816142d5565b9050919050565b7f4552433732313a207472616e736665722066726f6d20696e636f72726563742060008201527f6f776e6572000000000000000000000000000000000000000000000000000000602082015250565b600061437460258361328e565b915061437f82614318565b604082019050919050565b600060208201905081810360008301526143a381614367565b9050919050565b7f4552433732313a207472616e7366657220746f20746865207a65726f2061646460008201527f7265737300000000000000000000000000000000000000000000000000000000602082015250565b600061440660248361328e565b9150614411826143aa565b604082019050919050565b60006020820190508181036000830152614435816143f9565b9050919050565b7f4f776e61626c653a2063616c6c6572206973206e6f7420746865206f776e6572600082015250565b600061447260208361328e565b915061447d8261443c565b602082019050919050565b600060208201905081810360008301526144a181614465565b9050919050565b7f4552433732313a20617070726f766520746f2063616c6c657200000000000000600082015250565b60006144de60198361328e565b91506144e9826144a8565b602082019050919050565b6000602082019050818103600083015261450d816144d1565b9050919050565b7f4552433732313a207472616e7366657220746f206e6f6e20455243373231526560008201527f63656976657220696d706c656d656e7465720000000000000000000000000000602082015250565b600061457060328361328e565b915061457b82614514565b604082019050919050565b6000602082019050818103600083015261459f81614563565b9050919050565b7f4e487b7100000000000000000000000000000000000000000000000000000000600052601260045260246000fd5b600060ff82169050919050565b60006145ed826145d5565b91506145f8836145d5565b9250828203905060ff8111156146115761461061410f565b5b92915050565b7f4552433732313a206d696e7420746f20746865207a65726f2061646472657373600082015250565b600061464d60208361328e565b915061465882614617565b602082019050919050565b6000602082019050818103600083015261467c81614640565b9050919050565b7f4552433732313a20746f6b656e20616c7265616479206d696e74656400000000600082015250565b60006146b9601c8361328e565b91506146c482614683565b602082019050919050565b600060208201905081810360008301526146e8816146ac565b9050919050565b7f455243373231456e756d657261626c653a20636f6e736563757469766520747260008201527f616e7366657273206e6f7420737570706f727465640000000000000000000000602082015250565b600061474b60358361328e565b9150614756826146ef565b604082019050919050565b6000602082019050818103600083015261477a8161473e565b9050919050565b600081519050919050565b600082825260208201905092915050565b60006147a882614781565b6147b2818561478c565b93506147c281856020860161329f565b6147cb816132c9565b840191505092915050565b60006080820190506147eb60008301876133ca565b6147f860208301866133ca565b61480560408301856134b3565b8181036060830152614817818461479d565b905095945050505050565b600081519050614831816131f4565b92915050565b60006020828403121561484d5761484c6131be565b5b600061485b84828501614822565b91505092915050565b600061486f82613335565b915061487a83613335565b92508282039050818111156148925761489161410f565b5b92915050565b7f4e487b7100000000000000000000000000000000000000000000000000000000600052603160045260246000fdfea26469706673582212202f84da8f4922db8b92ec6f0b25a55cb15c4d31245b14b633c670a918cc9fe9a564736f6c63430008110033",
  "linkReferences": {},
  "deployedLinkReferences": {}
}